:102BF40000A8C0003F065B4F666D7D077F6F00082D
:102C040040014148777C395E79713D760F0E753805
:0E2C140037545C73673149783E1C7E646E59FC
:0B1F4000016001014C80C110014A004B
:10003E00122F3978247C007D007E007F0712112458
:10004E00E560640160030201D9122904E5416401EF
:10005E00600EE541640260081228931225B5803DBA
:10006E00E4F55B7436255BF8E4F6055BE55BB405F9
:10007E00F2E4F55B742C255BF8E4F6055BE55BB406
:10008E0008F2E4F55B7442255BF8E4F6743B255BFD
:10009E00F8E4F6055BE55BB406EB7541013010063E
:1000AE00C21075600522E54CD3948040030201A472
:1000BE00E54CC3941050030201A4E54C6480702DEE
:1000CE00E52AC4540FFFE52A540FFDE528C4540F4A
:1000DE00F565E528540FF56675670CE527C4540FD2
:1000EE00F568E527540FF5697B0C122D7EE54C64FF
:1000FE0040702DE526C4540FFFE526540FFDE5256F
:10010E00C4540FF565E525540FF56675670CE524A7
:10011E00C4540FF568E524540FF5697B0C122D7E3F
:10012E00E54C64207030E52C240FFFE52D240FFDE7
:10013E00E52E240FFBE52F240FF565E530240FF592
:10014E0066E531240FF567E532240FF568E53324B3
:10015E000FF569122D7EE54C6410702DE542C454E6
:10016E000FFFE542540FFDE543C4540FF565E5431B
:10017E00540FF56675670CE544C4540FF568E544F5
:10018E00540FF5697B0C122D7EAF4C122F46E54CA9
:10019E00C313F54C8035AF4C122F46754C80E54598
:1001AE00C4540FFFE545540FFDE546C4540FF565E5
:1001BE00E546540FF56675670CE547C4540FF568B0
:1001CE00E547540FF5697B0C122D7EE560640260E5
:1001DE00030202E3AF411226348F49E54964016000
:1001EE0012E5496402600CE54964036006301303AE
:1001FE001224A5AF4112252E8F49E54964016012E4
:10020E00E5496402600CE54964036006301103128F
:10021E0024A51225B5E54CD3942040030202E0E557
:10022E004CC3940850030202E0E54C64207030E5A4
:10023E002C240FFFE52D240FFDE52E240FFBE52FBB
:10024E00240FF565E530240FF566E531240FF567CB
:10025E00E532240FF568E533240FF569122D7EE59E
:10026E004C6410702DE542C4540FFFE542540FFD4F
:10027E00E543C4540FF565E543540FF56675670CF9
:10028E00E544C4540FF568E544540FF5697B0C1230
:10029E002D7EE54C6408702DE545C4540FFFE545F1
:1002AE00540FFDE546C4540FF565E546540FF5664B
:1002BE0075670CE547C4540FF568E547540FF569AB
:1002CE007B0C122D7EAF4C122F46E54CC313F54C12
:1002DE008003754C20E560641F6003020392AF41FA
:1002EE001224A5301230E542C4540FFFE542540FDC
:1002FE00FDE543C4540FF565E543540FF566756788
:10030E000CE544C4540FF568E544540FF5697B0CB5
:10031E00122D7E754C10300F30E545C4540FFFE59D
:10032E0045540FFDE546C4540FF565E546540FF5EB
:10033E006675670CE547C4540FF568E547540FF52D
:10034E00697B0C122D7E754C08301133E52C240F71
:10035E00FFE52D240FFDE52E240FFBE52F240FF5D1
:10036E0065E530240FF566E531240FF567E5322497
:10037E000FF568E533240FF569122D7E754C20AF0D
:10038E004C122F46E5606420600302096B300F4863
:10039E00E55F64017042E54CD39480503BE54C948C
:1003AE00014035E54C13F54CE52C240FFFE52D24CB
:1003BE000FFDE52E240FFBE52F240FF565E5302408
:1003CE000FF566E531240FF567E532240FF568E584
:1003DE0033240FF569122D7E300F45E55F640270F0
:1003EE003FE54CD394805038E54C94014032E54CB7
:1003FE0013F54CE542C4540FFFE542540FFDE5439F
:10040E00C4540FF565E543540FF56675670CE54466
:10041E00C4540FF568E544540FF5697B0C122D7E1C
:10042E00300F45E55F6403703FE54CD39480503840
:10043E00E54C94014032E54C13F54CE545C4540FA0
:10044E00FFE545540FFDE546C4540FF565E54654EA
:10045E000FF56675670CE547C4540FF568E547540C
:10046E000FF5697B0C122D7E30124AE55F64017028
:10047E0044E54CC39480503DE54CC394014036E5B1
:10048E004C25E0F54CE52C240FFFE52D240FFDE562
:10049E002E240FFBE52F240FF565E530240FF566AE
:1004AE00E531240FF567E532240FF568E533240FA7
:1004BE00F569122D7E301247E55F64027041E54CFE
:1004CE00C39480503AE54CC394014033E54C25E08B
:1004DE00F54CE542C4540FFFE542540FFDE543C40D
:1004EE00540FF565E543540FF56675670CE544C486
:1004FE00540FF568E544540FF5697B0C122D7E30D0
:10050E001247E55F64037041E54CC39480503AE5B1
:10051E004CC394014033E54C25E0F54CE545C454FD
:10052E000FFFE545540FFDE546C4540FF565E5464E
:10053E00540FF56675670CE547C4540FF568E5472B
:10054E00540FF5697B0C122D7E7480854CF084F56A
:10055E0061E4F535E561D3940040090535E5611395
:10056E00F56180F01535301150E55F6401704AE594
:10057E004CD394805043E54CC39401403C742C25DD
:10058E0035F8E6C3941A500106E52C240FFFE52D2D
:10059E00240FFDE52E240FFBE52F240FF565E53026
:1005AE00240FF566E531240FF567E532240FF56863
:1005BE00E533240FF569122D7E20110302069AE50C
:1005CE005F6402600302069AE54CD39480400302F6
:1005DE00069AE54CC39401500302069AE55FB402F5
:1005EE0011E535700DE542C3949050067410254206
:1005FE00F542E55FB40210E535B4010BE542540F48
:10060E00C3940950020542E55FB40212E535B40306
:10061E000DE543C39410500674102543F543E55F72
:10062E00B40210E535B4040BE543540FC3940950DE
:10063E00020543E55FB40212E535B4060DE544C389
:10064E009430500674102544F544E55FB40210E56D
:10065E0035B4070BE544540FC3940950020544E525
:10066E0042C4540FFFE542540FFDE543C4540FF549
:10067E0065E543540FF56675670CE544C4540FF5F4
:10068E0068E544540FF5697B0C122D7E2011030290
:10069E00076DE55F6403600302076DE54CD394803C
:1006AE00400302076DE54CC39401500302076DE54C
:1006BE005FB40311E535700DE545C3942050067403
:1006CE00102545F545E55FB40310E535B4010BE59E
:1006DE0045540FC3940950020545E55FB40312E576
:1006EE0035B4030DE546C39460500674102546F5E7
:1006FE0046E55FB40310E535B4040BE546540FC36D
:10070E00940950020546E55FB40312E535B4060DB3
:10071E00E547C39460500674102547F547E55FB46E
:10072E000310E535B4070BE547540FC39409500287
:10073E000547E545C4540FFFE545540FFDE546C496
:10074E00540FF565E546540FF56675670CE547C41D
:10075E00540FF568E547540FF5697B0C122D7E306A
:10076E001350E55F6401704AE54CD394805043E525
:10077E004CC39401403C742C2535F8E6D3940040CC
:10078E000116E52C240FFFE52D240FFDE52E240F79
:10079E00FBE52F240FF565E530240FF566E53124D2
:1007AE000FF567E532240FF568E533240FF569126E
:1007BE002D7E201303020893E55F64026003020896
:1007CE0093E54CD394804003020893E54CC3940107
:1007DE005003020893E55FB40211E535700DE54252
:1007EE00D39409400674F02542F542E55FB4021039
:1007FE00E535B4010BE542540FD394004002154287
:10080E00E55FB40212E535B4030DE543D394094018
:10081E000674F02543F543E55FB40210E535B404E4
:10082E000BE543540FD3940040021543E55FB40229
:10083E0012E535B4060DE544D39409400674F0254F
:10084E0044F544E55FB40210E535B4070BE54454B6
:10085E000FD3940040021544E542C4540FFFE54205
:10086E00540FFDE543C4540FF565E543540FF5668B
:10087E0075670CE544C4540FF568E544540FF569EB
:10088E007B0C122D7E201303020966E55F64036064
:10089E0003020966E54CD394804003020966E54CD9
:1008AE00C394015003020966E55FB40311E5357088
:1008BE000DE545D39409400674F02545F545E55FF1
:1008CE00B40310E535B4010BE545540FD394004045
:1008DE00021545E55FB40312E535B4030DE546D3C5
:1008EE009409400674F02546F546E55FB40310E51D
:1008FE0035B4040BE546540FD3940040021546E57B
:10090E005FB40312E535B4060DE547D394094006EE
:10091E0074F02547F547E55FB40310E535B4070BD2
:10092E00E547540FD3940040021547E545C4540FD4
:10093E00FFE545540FFDE546C4540FF565E54654F5
:10094E000FF56675670CE547C4540FF568E5475417
:10095E000FF5697B0C122D7EAF4C122F46E56064AD
:10096E00066003020A31E54CD394404003020A2E7E
:10097E00E54CC394105003020A2EE54C13F54C645B
:10098E00207030E52C240FFFE52D240FFDE52E24DD
:10099E000FFBE52F240FF565E530240FF566E531E5
:1009AE00240FF567E532240FF568E533240FF5695A
:1009BE00122D7EE54C6410702DE542C4540FFFE5F8
:1009CE0042540FFDE543C4540FF565E543540FF54E
:1009DE006675670CE544C4540FF568E544540FF58D
:1009EE00697B0C122D7EE54C6408702DE545C454D0
:1009FE000FFFE545540FFDE546C4540FF565E5467A
:100A0E00540FF56675670CE547C4540FF568E54756
:100A1E00540FF5697B0C122D7EAF4C122F468003BE
:100A2E00754C40E560643D600302100A300F48E5E6
:100A3E005F64017042E54CD39480503BE54C9401C9
:100A4E004035E54C13F54CE52C240FFFE52D240F16
:100A5E00FDE52E240FFBE52F240FF565E530240F61
:100A6E00F566E531240FF567E532240FF568E533B9
:100A7E00240FF569122D7E300F45E55F6402703F3D
:100A8E00E54CD394805038E54C94014032E54C133C
:100A9E00F54CE542C4540FFFE542540FFDE543C447
:100AAE00540FF565E543540FF56675670CE544C4C0
:100ABE00540FF568E544540FF5697B0C122D7E300A
:100ACE000F45E55F6403703FE54CD394805038E5E5
:100ADE004C94014032E54C13F54CE545C4540FFFE0
:100AEE00E545540FFDE546C4540FF565E546540F34
:100AFE00F56675670CE547C4540FF568E547540F66
:100B0E00F5697B0C122D7E30124AE55F640170444C
:100B1E00E54CC39480503DE54CC394014036E54C02
:100B2E0025E0F54CE52C240FFFE52D240FFDE52ED9
:100B3E00240FFBE52F240FF565E530240FF566E550
:100B4E0031240FF567E532240FF568E533240FF5F0
:100B5E0069122D7E301247E55F64027041E54CC389
:100B6E009480503AE54CC394014033E54C25E0F5B2
:100B7E004CE542C4540FFFE542540FFDE543C45407
:100B8E000FF565E543540FF56675670CE544C454DF
:100B9E000FF568E544540FF5697B0C122D7E30126B
:100BAE0047E55F64037041E54CC39480503AE54CD1
:100BBE00C394014033E54C25E0F54CE545C4540F94
:100BCE00FFE545540FFDE546C4540FF565E5465463
:100BDE000FF56675670CE547C4540FF568E5475485
:100BEE000FF5697B0C122D7E7480854CF084F561B7
:100BFE00E4F535E561D3940040090535E56113F55B
:100C0E006180F01535301150E55F6401704AE54C96
:100C1E00D394805043E54CC39401403C742C25354D
:100C2E00F8E6C3941A500106E52C240FFFE52D2497
:100C3E000FFDE52E240FFBE52F240FF565E530247F
:100C4E000FF566E531240FF567E532240FF568E5FB
:100C5E0033240FF569122D7E201103020D39E55F45
:100C6E0064026003020D39E54CD394804003020DFB
:100C7E0039E54CC394015003020D39E55FB40211FE
:100C8E00E535700DE542C39490500674102542F57B
:100C9E0042E55FB40210E535B4010BE542540FC3D3
:100CAE00940950020542E55FB40212E535B4030D16
:100CBE00E543C39410500674102543F543E55FB425
:100CCE000210E535B4040BE543540FC394095002EA
:100CDE000543E55FB40212E535B4060DE544C39451
:100CEE0030500674102544F544E55FB40210E53526
:100CFE00B4070BE544540FC3940950020544E54272
:100D0E00C4540FFFE542540FFDE543C4540FF5657F
:100D1E00E543540FF56675670CE544C4540FF5684A
:100D2E00E544540FF5697B0C122D7E201103020E43
:100D3E000CE55F64036003020E0CE54CD394804017
:100D4E0003020E0CE54CC394015003020E0CE55F3A
:100D5E00B40311E535700DE545C3942050067410AB
:100D6E002545F545E55FB40310E535B4010BE545C2
:100D7E00540FC3940950020545E55FB40312E535DF
:100D8E00B4030DE546C39460500674102546F5462F
:100D9E00E55FB40310E535B4040BE546540FC39478
:100DAE000950020546E55FB40312E535B4060DE5BC
:100DBE0047C39460500674102547F547E55FB403AA
:100DCE0010E535B4070BE547540FC39409500205DF
:100DDE0047E545C4540FFFE545540FFDE546C454A1
:100DEE000FF565E546540FF56675670CE547C45477
:100DFE000FF568E547540FF5697B0C122D7E301305
:100E0E0050E55F6401704AE54CD394805043E54C45
:100E1E00C39401403C742C2535F8E6D39400400170
:100E2E0016E52C240FFFE52D240FFDE52E240FFBD8
:100E3E00E52F240FF565E530240FF566E531240F17
:100E4E00F567E532240FF568E533240FF569122DA9
:100E5E007E201303020F32E55F64026003020F323D
:100E6E00E54CD394804003020F32E54CC3940150FD
:100E7E0003020F32E55FB40211E535700DE542D382
:100E8E009409400674F02542F542E55FB40210E580
:100E9E0035B4010BE542540FD3940040021542E5E0
:100EAE005FB40212E535B4030DE543D39409400651
:100EBE0074F02543F543E55FB40210E535B4040B39
:100ECE00E543540FD3940040021543E55FB402127C
:100EDE00E535B4060DE544D39409400674F0254477
:100EEE00F544E55FB40210E535B4070BE544540F45
:100EFE00D3940040021544E542C4540FFFE542541A
:100F0E000FFDE543C4540FF565E543540FF56675C3
:100F1E00670CE544C4540FF568E544540FF5697B3E
:100F2E000C122D7E201303021005E55F640360038F
:100F3E00021005E54CD394804003021005E54CC326
:100F4E0094015003021005E55FB40311E535700DF1
:100F5E00E545D39409400674F02545F545E55FB4A3
:100F6E000310E535B4010BE545540FD39400400250
:100F7E001545E55FB40312E535B4030DE546D3948C
:100F8E0009400674F02546F546E55FB40310E535D5
:100F9E00B4040BE546540FD3940040021546E55FAA
:100FAE00B40312E535B4060DE547D3940940067433
:100FBE00F02547F547E55FB40310E535B4070BE5BB
:100FCE0047540FD3940040021547E545C4540FFF14
:100FDE00E545540FFDE546C4540FF565E546540F3F
:100FEE00F56675670CE547C4540FF568E547540F71
:100FFE00F5697B0C122D7EAF4C122F46E560640511
:10100E0070431225B5E52C240FFFE52D240FFDE5C9
:10101E002E240FFBE52F240FF565E530240FF56622
:10102E00E531240FF567E532240FF568E533240F1B
:10103E00F569122D7E7FFF122F467D647C007FD0D6
:06104E007E0712272F228D
:10175F00E4FF122AD5BF0104D2158002C2157F0102
:10176F00122AD5BF0104D2168002C216E4FF122A34
:10177F004BBF0104D2178002C2177F05122A4BBF3D
:10178F000104D2118002C2117F02122A4BBF010441
:10179F00D2138002C2137F04122A4BBF0104D2124C
:1017AF008002C2127F01122A4BBF0104D20F8002A6
:1017BF00C20F7F03122A4BBF0104D2148002C2143E
:1017CF00E560B405112016030218D77560011229C0
:1017DF0004AF410220EA301509756001C215754C3E
:1017EF008022E5606406703730160B756001C216F3
:1017FF0012281E1218D82014030218D7C2147560AD
:10180F003DE54CB42003755F01E54CB41003755FE3
:10181F0002E54CB40803755F03754C800225B5E5EE
:10182F0060B43D112014030218D7C21475600685E9
:10183F00414B02281EE560640170203016141229F6
:10184F0004E54164016009E54164026003756002CB
:10185F00C216301773756006C21722E560B402090D
:10186F0030146575601FC21422E560641F70383034
:10187F001423756020C214E54CB42003755F01E595
:10188F004CB41003755F02E54CB40803755F037524
:10189F004C801225B530170AAF411220EAC21775D6
:1018AF0060023016238016E560B4201C30140B75CF
:1018BF00601FC21485414B12281E30160B12281EB2
:0918CF00122DBEC2167560022242
:1018D800E4F548F55BE55B04FF122DFA8F2BE4F580
:1018E8005CAF5CE52BA807088002C333D8FC5480A2
:1018F800F53470057548018007055CE55CB408E1BE
:10190800E5487009055BE55BC3940240C8E548708B
:1019180028F55CAF5CE52BA807088002C333D8FC28
:101928005480F53470057548018007055CE55CB4A2
:1019380005E1E54870037F0122E55B75F008A42501
:101948005C75F00CA42404F548E4F55DE548255DD4
:10195800FF7436255DF8E6FD12000E122EFE055DB9
:10196800E55DC3940540E5755E05E548255EFF74B1
:1019780036255EF8E6FD12000E122EFE055EE55EC7
:10198800C3940B40E5E4FF122DFA8F4AE4F55EF5A7
:1019980034E54A603CE4F55DE54A2405255DFF121F
:1019A8002DFA743B255DF8E6FEEFD39E40057534AD
:1019B800018009055DE55DC3940640DCE5346401FA
:1019C800600F854A5EE54A240BFF122DFA8F4A8084
:1019D800C0E55E7005AD48FF8007E55E240BFFADEE
:1019E8004812000E122EFEE548240BFFAD4A1200E5
:1019F8000E122EFEE55B04FFAE5C7480A80608801C
:101A080002C313D8FC252BFD12000E122EFE7F00F8
:011A180022AB
:1020EA008F62E4F548E562C3940450037F0122E558
:1020FA006275F00C84E5F0640460037F0122E562F6
:10210A0075F00C84F52B131313541F04FF122DFAC8
:10211A008F34E52B5407FD74807E00A805088006DD
:10212A00CEA2E713CE13D8F8FFE534FBEF5B7003BA
:10213A007F0222E52B131313541F04FF7480A80592
:10214A00088002C313D8FCFEC3E5349EFD12000EBC
:10215A00122EFEE4FF122DFA8F4AE54AB56215E502
:10216A0062240BFF122DFAAD07E4FF12000E122EA5
:10217A00FE7F0022E54A6029240BFF122DFA8F48C0
:10218A00E548B56217E562240BFF122DFAAD07E5A3
:10219A004A240BFF12000E122EFE800585484A8043
:0421AA00D37F0022BD
:102634008F62E562C394045007E56260037F03225E
:10264400E56275F00C84E5F064046007E5626003FC
:102654007F0322E5627010FF122DFA8F4AE54A705B
:10266400037F0222AF4A22E56275F00C84F52B1336
:102674001313541F04FF122DFA8F34E52B5407FF54
:1026840074807E00A807088006CEA2E713CE13D874
:10269400F8FFEF553470037F0222E562240BFF122A
:0E26A4002DFA8F4AE54A70037F0122AF4A22C9
:10252E008F62E56270037F0122E562C3940450035B
:10253E007F0322E56275F00C84E5F0640460037F8E
:10254E000322E56275F00C84F52B131313541F044C
:10255E00FF122DFA8F34E52B5407FF74807E00A8EE
:10256E0007088006CEA2E713CE13D8F8FFEF553436
:10257E0070037F0222E4FF122DFA8F4AE54AB562FC
:10258E00037F0122E54A601C240BFF122DFA8F48AF
:10259E00E548B56203AF4A22E548240BFF122DFA37
:0725AE008F4A80E07F01224B
:102DBE00E4F548854149AF491220EA8F48E548605D
:0F2DCE0001221218D88F48E5486001227F0022A9
:10290400E4F548FF1226348F4AE54A64026005E57F
:102914004AB4010475410122E54AB4030475410235
:1029240022E4F55BE54A255BFF122DFA7436255B3C
:10293400F8A607055BE55BC3940540E8755C05E50F
:102944004A255CFF122DFA7436255CF8A607055C4F
:0B295400E55CC3940B40E8854A41227B
:10281E00E52C33333354F8FFE52D1313543F2FF5C6
:10282E0036E52E25E0FFE52DC4333354C02FFFE5EA
:10283E002FC4540F2FF537E52FC454F0FFE530C3E6
:10284E00132FF538E53125E025E0FFE530C43333AD
:10285E003354802FFFE532131313541F2FF539E530
:10286E0032C43354E02533F53AE4F55C7442255C0A
:10287E00F8E6FF743B255CF8A607055CE55CB4063C
:05288E00EB854B412227
:1025B500E536131313541FF52CE537C413135403D1
:1025C500FFE53625E025E0541C2FF52DE537C3132F
:1025D500541FF52EE538C4540FFFE537C454102FAA
:1025E500F52FE539C41313135401FFE53825E054DD
:1025F5001E2FF530E5391313541FF531E53AC41391
:102605005407FFE53933333354182FF532E53A547F
:102615001FF533E4F55C743B255CF8E6FF74422551
:0F2625005CF8A607055CE55CB406EB85414B222B
:1024A5008F62E562C394045002800CE56275F00CFE
:1024B50084E5F06404600475410122E56275F00C61
:1024C50084F52B131313541F04FF122DFA8F34E5D3
:1024D5002B5407FF74A07E00A807088006CEA2E74C
:1024E50013CE13D8F8FFEF5534700475410222E47A
:1024F500F55BE562255BFF122DFA7436255BF8A6C0
:1025050007055BE55BC3940540E8755C05E5622559
:102515005CFF122DFA7436255CF8A607055CE55CB0
:09252500C3940B40E885624122D9
:10289300E53BC3952A5003D21022E53BD3952A404A
:1028A30003C21022E53CC395285003D21022E53C15
:1028B300D395284003C21022E53DC395275003D288
:1028C3001022E53DD395274003C21022E53EC39570
:1028D300265003D21022E53ED395264003C2102290
:1028E300E53FC395255003D21022E53FD3952540FC
:1028F30003C21022E540D395245003D21022C21004
:0129030022B1
:10132100756001E54D64A16003021421E54E64AFCF
:1013310060030215B2754DAFF55B744E255BF8E4A1
:10134100F6055BE55BB405F2852A538528548527AC
:1013510055852656852557852458E4F559FB7A008D
:10136100794D7D0DFC122CCC120003122904E541AC
:1013710064016005E541B40209754DA1754EFF0296
:10138100145B754DA1E4F55B7436255BF8E6FF74DB
:101391004E255BF8A607055BE55BB405EBE4F55B61
:1013A100743B255BF8E6FF7453255BF8A607055BE4
:1013B100E55BB406EB8046AF41122634EFD39403CC
:1013C1004050754DA1AF411226341224A5E4F55BBE
:1013D1007436255BF8E6FF744E255BF8A607055BBE
:1013E100E55BB405EBE4F55B743B255BF8E6FF7464
:1013F10053255BF8A607055BE55BB406EB85415910
:101401007B007A00794D7D0D7C00122CCC120003FB
:1014110080A5754DFF7B007A00794D7D010214A1F5
:10142100E54D64B1703EE54E64BF60030215B285BF
:101431004F2A855028855127855226855325855465
:101441002478697C00FDFB7A007924FE7F07121164
:1014510024122E4A754DBF754EB17B007A00794D2D
:101461007D02803CE54D64C1703BE54E64CF600375
:101471000215B2F52AF528F527F526F525F5247884
:10148100697C00FDFB7A007924FE7F07121124128A
:101491002E4A754DCF754EC17B007A00794D7D0284
:1014A1007C000215ACE54D64D17061E54E64DF60EE
:1014B100030215B2F55B744F255BF8E6FF74362520
:1014C1005BF8A607055BE55BB405EBE4F55B7454DB
:1014D100255BF8E6FF743B255BF8A607055BE55B3A
:1014E100B406EB1218D8EF7010754DDF754ED1FBB5
:1014F1007A00794D7D02FC8010754DDD754EDD7BE6
:10150100007A00794D7D027C000215ACE54D64E165
:101511007036E54E64EF60030215B2854F41AF416D
:101521001220EAEF7010754DEF754EE1FB7A0079EC
:101531004D7D02FC8010754DEE754EEE7B007A00FC
:10154100794D7D027C008063E54D64F17063E54E69
:10155100F4705EF55B744F255BF8E6FF7436255B2E
:10156100F8A607055BE55BB405EBE4F55B74542570
:101571005BF8E6FF743B255BF8A607055BE55BB40A
:1015810006EB855A41122DBEEF7010754DFF754E59
:10159100F1FB7A00794D7D02FC8010754DFF754E8F
:1015A100FF7B007A00794D7D027C00122CCC120069
:0215B100032213
:082EFE007F6C7E91DEFEDFFC1B
:012F060022A8
:07000300122EF3EF70FA2248
:10201E00122D5E7F98122B9278627C007D007B00E1
:10202E007A0079247E007F07121124121C6C122D67
:10203E00DD122E167F807E257D007C001227A77D67
:10204E0007E4FF122F10756700756800756900E4CC
:10205E00F56AF56BFB7A00794D7D0EFC122BC3E40D
:10206E00FDFF12000E122EFEE4FD7F0112000E1275
:10207E002EFEE4FD7F0212000E122EFEE4FD7F0303
:10208E0012000E122EFE7BFF7A17795F7F04122646
:10209E00B27BFF7A00793E7F031226B27BFF7A175E
:1020AE00795F7F071226B27BFF7A1379217F09129F
:1020BE0026B2E4F55B742C255BF8E4F6055BE55B74
:1020CE00B408F2E4F55B7442255BF8E4F6055BE5D3
:0C20DE005BB406F2122F4C122B5480FB56
:092F07008B88898C88898F8889E8
:101F4B0052007A8686008686008686008686008604
:091F5B00860086860041006F0932
:03002B00022F4061
:062F400053BCEFD2183271
:0215B300151F02
:1015B50020180302175CC21890006EE0B4090040C1
:1015C5000302173E9015D0F8282873021617021546
:1015D500EB0215FD0216290215EB0215FD02164058
:1015E5000215EB0215FDAFBDEFFEADBE7C00E42D8F
:1015F500FFEC3E900070803CAFBDEFFEADBE7C00C1
:10160500E42DFFEC3E900072F0A3EFF0751A010295
:101615001744AFBDEFFEADBE7C00E42DFFEC3E9060
:1016250000748010AFBDEFFEADBE7C00E42DFFEC75
:101635003E900076F0A3EFF0021744AFBDEFFEAD8C
:10164500BE7C00E42DFFEC3E900078F0A3EFF09017
:101655000078E0FEA3E07807CEC313CE13D8F9A82F
:101665001FF6C394065013A81FE675F003A4247A49
:10167500F582E43400F583E014F090006FE014F097
:1016850060030217447409F0A81FE4F6A81FE6FFDB
:10169500C394064003021744EF75F003A4247AF5BA
:1016A50082E43400F583E0C39480502AE6FF75F0A8
:1016B50003A4247BF582E43400F583E0D3948040D1
:1016C50040EF75F003A4247CF582E43400F58374BF
:1016D50001F0F51B802BA81FE6FF75F003A4247B02
:1016E500F582E43400F583E0C394805014EF75F07F
:1016F50003A4247CF582E43400F5837402F0751BA1
:1017050001A81FE6FF75F003A4247AF582E43400EE
:10171500F583E0FEEF75F003A4247BF582E4340045
:10172500F583EEF0E675F003A4247AF582E434003F
:10173500F5837486F00602169190006E74FFF090A2
:10174500006EE0D39407400374FFF090006EE00450
:07175500F0902F0793F5BC93
:03175C00051F2244
:022EBD00151FDF
:092EBF00A81FA61BE4F51BE6FFA9
:032EC800051F22C1
:022ECB00151FD1
:092ECD00A81FA61AE4F51AE6FF9D
:032ED600051F22B3
:102B92008F9D75BC88439720D2AD90004574FFF09D
:102BA200A37415F0A374B3F0A374FFF0A3742EF012
:102BB200A374BDF0A374FFF0A3742EF0A374CBF042
:012BC20022F0
:072F2B007B017A007970229E
:102A4B00C3EF64809480403BD3EF64809485503314
:102A5B00EFFD3395E0FC90007C75F003ED12130F46
:102A6B00EC75F003A42583F583E0FE90007C75F0F4
:102A7B0003ED12130FEC75F003A42583F583E4F03B
:052A8B00AF06227F03ED
:012A90002223
:042CA400151F151FC4
:102CA800122F19A81FA60608A607A81FE6FE08E601
:0F2CB800FF4E600BEF24FFFFEE34FFFE122F22C2
:052CC700051F051F229E
:102D5E0053B1EF43B210122F52E4F5D975DA49D2BE
:102D6E00DE90003F74FFF0A3742CF0A374A4F02245
:08272F008E628F638C648D65DE
:10273700122F19EF4E7066AF65AE64122F22C3E5F4
:1027470063940AE5629400404BE47B18FAF9F89029
:102757002BF41212F312123AC006C007AE62AF632F
:10276700AB07AA06E4F9F8D007D00612123AAB076E
:10277700AA06AFF9EFFEADE97C00E42DFFEC3ECFF2
:102787002BCF3AAD07FCAF03AE02122E8DD2D84342
:0F279700DA018006122F5253DAFE7F02227F03EF
:0127A6002210
:0C2EE700122F19EF4E7002FF227F012213
:101E5700E4F5809000ACE0FFB40800505F901E6B83
:101E6700F8282873021E83021E89021E8F021E9500
:101E7700021E9B021EA5021EAF021EB9C2A3C2A26A
:101E87008016C2A3C2A2801AC2A3C2A2801EC2A386
:101E9700C2A28022C2A3D2A2C2A1C2A08020C2A392
:101EA700D2A2C2A1D2A08016C2A3D2A2D2A1C2A09E
:101EB700800CC2A3D2A2D2A1D2A08002D2A3C3EF28
:101EC7006480948850299000ACE0FF3395E0FE745D
:101ED700A32FF58274003EF583E0FF3395E0FE748F
:101EE700F82FF582742B3EF583E493F580801E90DE
:101EF70000ACE0FFB408133395E0FE74A32FF5821E
:101F070074003EF583E0F5808003E4F5809000A23D
:101F1700E0FF9000ACE004FEF0D3EF6480F8EE64DD
:101F270080984014E0D36480948850047408F022A9
:091F37009000A1E09000ACF02242
:102E1600E4F5937594FF5395F043960F90002A744A
:0B2E2600FFF0A3741EF0A37457F0220D
:092F10009000A1EFF0A3EDF02206
:102D7E009000A3EFF0A3EDF0A3EBF0A3E565F0A3B5
:102D8E00E566F0A3E567F0A3E568F0A3E569F02238
:062F46009000ABEFF02249
:101F6400011E004900AE949400949400949400419E
:031F740000AD1E9F
:021B4900151F66
:101B4B0020B2069000AEE014F020B3069000B1E096
:101B5B0014F02097069000B4E014F09000ADE01460
:101B6B00F06003021C69741EF0A81FE4F6A81FE6C0
:101B7B00FFC3648094834003021C69EF3395E0FE3E
:101B8B009000AE75F003EF12130FEE75F003A42562
:101B9B0083F583E0C3948050399000AF75F003EF69
:101BAB0012130FEE75F003A42583F583E0D3948015
:101BBB00405AE6FF3395E0FE9000B075F003EF124C
:101BCB00130FEE75F003A42583F5837401F0F51E56
:101BDB00803AA81FE6FF3395E0FE9000AF75F00347
:101BEB00EF12130FEE75F003A42583F583E0C39476
:101BFB008050199000B075F003EF12130FEE75F0D3
:101C0B0003A42583F5837402F0751E01A81FE6FF5C
:101C1B00FD3395E0FC9000AE75F003ED12130FEC65
:101C2B0075F003A42583F583E0FE9000AF75F003F8
:101C3B00ED12130FEC75F003A42583F583EEF0EF93
:101C4B003395E0FE9000AE75F003EF12130FEE75B7
:0E1C5B00F003A42583F5837494F006021B7831
:031C6900051F2232
:022ED900151FC3
:092EDB00A81FA61EE4F51EE6FF87
:032EE400051F22A5
:102DDD0090003074FFF0A3742EF0A374D9F090001E
:0D2DED002D74FFF0A3741BF0A37449F022B5
:102AD500EF600764016003BF0233EFFD3395E0FC4F
:102AE5009000B075F003ED12130FEC75F003A425FB
:102AF50083F583E0FE9000B075F003ED12130FEC43
:0F2B050075F003A42583F583E4F0AF06227F0368
:012B1400229E
:101F77004100000A4100290A41006D0A040E0000D1
:101F870000000114004600670000FFFF8FFFC10D2E
:101F9700C105C108C101C10E60240005FF000AFF89
:101FA700000AFF000AFF000AFF000AFF000AFF00FD
:101FB7000AFF000AFF000AFF000AFF000AFF000AE3
:101FC7006036002AFF000AFF000AFF0026FF000A0A
:101FD700FF0026FF000AFF0026FF000AFF000AFF96
:101FE700000AFF0026FF0026FF0026FF0026FF004D
:0A1FF7000AFF000AFF000AFF000ABB
:01000A0022D3
:030026007F002236
:102A0400438E805389F07BE07A2879017800902BFB
:102A1400F41212F3122A91EFF404F58A7BE07A2877
:102A240079017800902BF41212F3122A91C3E49FD7
:102A3400FFE49EFE74019DFDE49CFC78081212DF05
:072A44008F8CD28CD2A92275
:03000B000229B215
:0429B200C0E0C0D0F1
:1029B600D5080A75084C300D020514D20DA2037213
:1029C600045036150AE50A7030850C0AD207300A1B
:1029D60017E50D6007150D438F01801D538FFEC24D
:1029E600B5D51615C20A8011050BE50BD394064022
:0929F60008C203E5136002D206D9
:0529FF00D0D0D0E03251
:10295F00300E47C20E902BF41212F378101212DFC2
:10296F008E1C8F1D900003E0FEA3E0FFE4FCFD7BB7
:10297F0019FAF9F81211AFC006C007AE1CAF1DABA4
:10298F0007AA06E4F9F8D007D006122A91780312A5
:10299F0012DF900065EEF0A3EFF0900065E0FEA36C
:0229AF00E0FF47
:0129B1002203
:092F1900900067E0FEA3E0FF2236
:092F2200900067EEF0A3EFF0222D
:102E8D0090006BEEF0A3EFF0900069ECF0A3EDF085
:012E9D002212
:032F5200C2B422E4
:03003B000221AEF1
:1021AE00C0E0C083C082C0D075D000C004C005C0DE
:0321BE0006C00751
:1021C10030DF04C2DF807D30DA04C2DA807630D9B4
:1021D1003DC2D9AFFBEFFEADEB7C00E42DFFEC3E41
:1021E10020000E900001F0A3EFF075DB11D200800A
:1021F10053FE900001E0FCA3E0FDC3EF9DFFEE9CC8
:10220100A3F0A3EFF075DB00C200D20E803630D808
:1022110033C2D8900067E07002A3E06022B2B490AC
:102221000069E0FEA3E0F5EAEEF5FAA3E0FEA3E023
:10223100FF90006AE02FF0900069E03EF08005C257
:04224100B453DAFEBA
:10224500D007D006D005D004D0D0D082D083D0E03E
:012255003256
:062F4C00122A04D2AF229C
:10241A003004047F0180027F00200A047E018002CA
:10242A007E00EE5F6074E515C39509506830023688
:10243A00750D01E515131313541FAB17AA18A91923
:10244A00F58275830012114AFFE515540704FEEF61
:10245A00A806088002C333D8FC30D7057516038056
:10246A002F751601802AAB17AA18A91975F002E56B
:10247A0015A4F58285F08312114AF50DE51575F05C
:10248A0002A429F9EA35F0FA90000112114AF51668
:0A249A000515D20A22C204438F1078
:0124A4002215
:101D6A00900000E014F0701F740AF0D20590002968
:101D7A00E014F07012740AF0D20890006DE014F0CA
:101D8A007005740AF0D20190002AA3E0FAA3E0F9E0
:101D9A0012131B90002DA3E0FAA3E0F912131B9073
:101DAA000039A3E0FAA3E0F912131B900045A3E05F
:101DBA00FAA3E0F912131B900054A3E0FAA3E0F986
:101DCA0012131B90005DA3E0FAA3E0F912131B9013
:101DDA00004BA3E0FAA3E0F912131BEF600C90008A
:101DEA001DA3E0FAA3E0F912131B90004EA3E0FA38
:101DFA00A3E0F912131BEF600E900020A3E0FAA3F0
:101E0A00E0F912131BD20BE512D394004016D51237
:101E1A003030090C900023A3E0FAA3E0F912131B57
:101E2A00D20C801D900051A3E0FAA3E0F912131B13
:101E3A00EF600E900023A3E0FAA3E0F912131BD27D
:0D1E4A000C900005A3E0FAA3E0F902131BC1
:1022FB0090003FA3E0FAA3E0F912131B900042A356
:10230B00E0FAA3E0F912131B900033A3E0FAA3E069
:10231B00F912131B900008A3E0FAA3E0F912131BA8
:10232B00900030A3E0FAA3E0F912131BEF600C90BE
:10233B000011A3E0FAA3E0F912131B900036A3E0FF
:10234B00FAA3E0F912131BEF600C900017A3E0FA4D
:10235B00A3E0F912131B900048A3E0FAA3E0F912D3
:10236B00131BEF600C90001AA3E0FAA3E0F9121311
:10237B001B30060EC206900026A3E0FAA3E0F9126A
:03238B00131B22FF
:102B150090000BA3E0FAA3E0F912131B90003CA36D
:102B2500E0FAA3E0F912131BEF600C900014A3E088
:102B3500FAA3E0F912131B900057A3E0FAA3E0F9FA
:0F2B450012131B90005AA3E0FAA3E0F902131B2E
:102C5000AF11AE10AD0FAC0E9000601213039000D8
:102C600064E514F0E4F511F510F50FF50EF5149088
:0B2C7000000EA3E0FAA3E0F902131B22
:102B5400300705C20712241A300D05C20D121D6A72
:102B6400300505C2051222FB300805C208122B15D8
:102B7400300105C201122C50E5112401F511E43590
:0E2B840010F510E4350FF50FE4350EF50E22B6
:1026B2008B628A638964EFB40C0050709026C5F86F
:1026C2002828730226E90226EE0226F30226F802E1
:1026D20026FD02270202270702270C0227110227E2
:1026E2001602271B022720900005803590000880E3
:1026F2003090000B802B90000E80269000118021DC
:10270200900017801C900014801790001A8012907D
:10271200001D800D9000208008900023800390000F
:0D27220026E562F0A3E563F0A3E564F02274
:072F32007B017A00796022A7
:042001004100BF01DA
:102E3100C295E4FEEF1392CC000000D29500EFC3DF
:082E410013FFC2950EBE08EC60
:012E49002266
:102E6300E4FEEFC313FF30CC03430780D295000089
:072E730000C2950EBE08EB42
:012E7A002235
:102C2200F07F85122C35A3EFF07F87122C35A3EFAE
:032C3200F07F89A7
:102C3500C296000000C295000000D29600122E3107
:0A2C4500122E63D295000000C29623
:012C4F002262
:032D9E00A3E0FDB2
:102DA100C296000000C295000000D29600122E319A
:0D2DB100AF05122E31D295000000C296220F
:072F39007B017A0079B82248
:102E4A0078B87C007D017B007A0079697E007F0773
:092E5A00121124E49000BFF022E3
:102E7B00EFD3941F5009EF25E044C1FF022C357F9F
:022E8B00012222
:102C7B00AC07AB05ECD3941F501CE4FD7F8E122DDB
:102C8B00A1EC25E044C0FFAD03122DA17D807F8E0A
:092C9B00122DA17F00227F01220D
:02225600151F52
:102258009000BFE060447F81122C35A81FEFF690F4
:1022680000B8E06F70030222F8A81FE6F07F83121F
:102278002C35A81FEFF6A3E06F6075A81FE6122C97
:1022880022A3EFF07F8D122C359000BEEFF07F8BEC
:10229800122C359000BDEFF080569000B7E0FF0497
:1022A800F0EFC3940A4049E4F09000BF04F0E4FD65
:1022B8007F8E122DA19000B8E0FD7F80122DA17FA6
:1022C80082122D9E7F84122D9EA3E0FD7F86122D03
:1022D800A1A3E0FD7F88122DA1A3E0FD7F8A122D26
:1022E800A1A3E0FD7F8C122DA17D807F8E122DA1F0
:0322F800051F229D
:101C6C007F81122C359000B8EFF07F83122C35A3B6
:101C7C00EF122C22A3EFF07F8B122C35A3EFF07F09
:101C8C008D122C35A3EFF0E4FD7F8E122DA17F1E5B
:101C9C00122E7BEF64A560047F0180027F00900010
:101CAC00B8E05480FEA3E0D3945940047D01800237
:101CBC007D00ED4EFE9000BAE0D394A440047D016B
:101CCC0080027D00ED4EFE9000BBE0D394314004C9
:101CDC007D0180027D00ED4EFE9000BCE0D394129D
:101CEC0040047D0180027D00ED4EFE9000BDE0D3EE
:101CFC00940740047D0180027D00ED4EFE9000BEF5
:101D0C00E0D3949940047D0180027D00ED4E4F603C
:101D1C003078697C007D007B007A0079627E007FE0
:101D2C0007121124122E4A7DA57F1E122C7B78B827
:101D3C007C007D017B007A0079627E007F071211A6
:101D4C00247DA97F90122DA17D807F8E122DA190D4
:0E1D5C00005A74FFF0A37422F0A37456F02214
:102E9E00D2C0000000D2CD000000C2C0000000224F
:0D002E00C2C0000000D2CD000000D2C022F0
:0B2CF400122D18122CFFAF05122D1836
:102CFF00E4FFD2CD30C009EFC394FF50030F80F42F
:082D0F00000000C2CD0000002D
:012D17002299
:102D1800E4FEEF25E0FFC2CD00000092C0000000F5
:102D2800D2CD0000000EBE08E9C2CD000000D2C01E
:032D380000000098
:012D3B002275
:102D3C00C2CD000000D2C000E4FED2CD0000EF25D1
:102D4C00E0FDA2C0E4334DFF0000C2CD000EBE0872
:012D5C00E98D
:012D5D002253
:10000E00AC07122E9E7FA0122D18122CFFAF0412D9
:05001E002CF402002E8D
:022DFA00AD0723
:102DFC00122E9E7FA0122CF4122E9E7FA1122D1843
:092E0C00122CFF122D3C12002EC5
:012E1500229A
:1020050055008C00000000000000000000000000EA
:082015000000010000000000C2
:03002300021A19A5
:101A1900C0E0C0F0C083C082C0D075D000C000C093
:101A290001C002C003C004C005C006C00730993B0D
:101A3900C299900091E0FEA3E0FFC3900090E09F5F
:101A490090008FE09E501F90008CE0FBA3E0FAA36A
:101A5900E0F9A3E475F00112119985F082F583127A
:101A6900114AF5998005900093E4F0209803021B30
:101A79002EC298300B09C20B900099E4F0A3F090A4
:101A89000097E0FEA3E0FFA3E0FCA3E0FDC39FEC09
:101A99009E5077900094E0FBA3E0FAA3E0F98D82D1
:101AA9008C83E59912117790009FE0FEA3E0FFC3B4
:101AB900ED9FEC9E5046900097E0FCA3E0FDEF9D62
:101AC900EE9C503890009CE0FBA3E0FAA3E0F9906B
:101AD9000099E0FEA3E0FFF5828E8312114AFD9082
:101AE9000094E0FBA3E0FAA3E0F98F828E83121140
:101AF9004A6D600890009974FFF0A3F090009AE095
:101B090004F07006900099E004F0900097E0FEA3BD
:101B1900E0FFC390009AE09F900099E09E400690F4
:101B2900009B7401F0D007D006D005D004D003D0B3
:101B390002D001D000D0D0D082D083D0F0D0E03212
:022EAE00151FEE
:0A2EB00090009BE0A81FF6FFE4F07D
:032EBA00051F22CF
:1027A7008F658E648D638C62759850438E40538E0F
:1027B700FE53890FE47B04FAF9F8902BF41212F315
:1027C70012123AAB65AA64A963A86212123AEFF42F
:1027D70004F58BE47B04FAF9F8902BF41212F31248
:1027E700123AAB65AA64A963A86212123AC3E49FBE
:1027F700FFE49EFE74019DFDE49CFC78081212CC58
:102807008F8DC2ABD28ED2AC90004E74FFF0A37402
:072817002EF0A374AEF022C5
:102BC300900094EBF0A3EAF0A3E9F0A3ECF0A3EDFB
:102BD300F090009FE56AF0A3E56BF090009CE56739
:102BE300F0A3E568F0A3E569F0D20BE490009BF055
:012BF30022BF
:102CCC00900093E0701F90008CEBF0A3EAF0A3E966
:102CDC00F0E4A3F0A3F0A3ECF0A3EDF0A37401F0E7
:082CEC00D2997F02227F03222E
:0B2EF300900093E07002FF227F01229C
:0300000002238E4A
:0C238E00787FE4F6D8FD75816F0223D53E
:10105400E709F608DFFA8046E709F208DFFA803E7E
:1010640088828C83E709F0A3DFFA8032E309F6086B
:10107400DFFA8078E309F208DFFA807088828C83D3
:10108400E309F0A3DFFA806489828A83E0A3F60887
:10109400DFFA805889828A83E0A3F208DFFA804C61
:1010A40080D280FA80C680D4806980F28033801038
:1010B40080A680EA809A80A880DA80E280CA8033A1
:1010C40089828A83ECFAE493A3C8C582C8CCC58319
:1010D400CCF0A3C8C582C8CCC583CCDFE9DEE780E9
:1010E4000D89828A83E493A3F608DFF9ECFAA9F068
:1010F400EDFB2289828A83ECFAE0A3C8C582C8CCBE
:10110400C583CCF0A3C8C582C8CCC583CCDFEADED6
:10111400E880DB89828A83E493A3F208DFF980CC38
:1011240088F0EF60010E4E60C388F0ED2402B40431
:101134000050B9F582EB2402B4040050AF232345D8
:0611440082239010A47349
:10114A00BB010CE58229F582E5833AF583E022505A
:10115A0006E92582F8E622BBFE06E92582F8E222A4
:0D116A00E58229F582E5833AF583E49322BE
:10117700F8BB010DE58229F582E5833AF583E8F0AE
:10118700225006E92582C8F622BBFE05E92582C85A
:02119700F22242
:10119900A3F8E0C5F025F0F0E58215827002158309
:0611A900E0C838F0E82266
:1011AF00E88FF0A4CC8BF0A42CFCE98EF0A42CFCDF
:1011BF008AF0EDA42CFCEA8EF0A4CDA8F08BF0A45D
:1011CF002DCC3825F0FDE98FF0A42CCD35F0FCEBBC
:1011DF008EF0A4FEA9F0EB8FF0A4CFC5F02ECD3981
:0F11EF00FEE43CFCEAA42DCE35F0FDE43CFC22EE
:1011FE0075F008758200EF2FFFEE33FECD33CDCCA8
:10120E0033CCC58233C5829BED9AEC99E58298402A
:10121E000CF582EE9BFEED9AFDEC99FC0FD5F0D607
:10122E00E4CEFBE4CDFAE4CCF9A88222B800C1B931
:10123E000059BA002DEC8BF084CFCECDFCE5F0CB6F
:10124E00F97818EF2FFFEE33FEED33FDEC33FCEBA8
:10125E0033FB10D703994004EB99FB0FD8E5E4F963
:10126E00FA227818EF2FFFEE33FEED33FDEC33FC50
:10127E00C933C910D7059BE99A4007EC9BFCE99A44
:10128E00F90FD8E0E4C9FAE4CCFB2275F010EF2F89
:10129E00FFEE33FEED33FDCC33CCC833C810D70789
:1012AE009BEC9AE899400AED9BFDEC9AFCE899F8C4
:0E12BE000FD5F0DAE4CDFBE4CCFAE4C8F92257
:102A9100C2D5E830E70FB2D5E4C39BFBE49AFAE470
:102AA10099F9E498F8EC30E717B2D5122AC7121257
:102AB1003AE4C39BFBE49AFAE499F9E498F88003B9
:102AC10012123A30D50DE4C39FFFE49EFEE49DFD52
:042AD100E49CFC2263
:1012CC00E8600FECC313FCED13FDEE13FEEF13FF00
:0312DC00D8F12224
:1012DF00E86010ECA2E713FCED13FDEE13FEEF1325
:0412EF00FFD8F02212
:1012F300E493FC740193FD740293FE740393FF2241
:0C130300ECF0A3EDF0A3EEF0A3EFF0225D
:0C130F00A42582F582E5F03583F58322E9
:06131B008A838982E4735D
:10239A0002201EE493A3F8E493A34003F68001F21B
:1023AA0008DFF48029E493A3F85407240CC8C33344
:1023BA00C4540F4420C8834004F456800146F6DF13
:1023CA00E4800B0102040810204080901F40E47E44
:1023DA00019360BCA3FF543F30E509541FFEE49308
:1023EA00A360010ECF54C025E060A840B8E493A3CF
:1023FA00FAE493A3F8E493A3C8C582C8CAC583CAFA
:10240A00F0A3C8C582C8CAC583CADFE9DEE780BEB1
:01201D0000C2
:00000001FF
